:0C1A6C000800081008200830084008504E
:040003004100B60002
:0A1A9A00C2998F993099FDC299227C
:10092000E490016CF0A3F090016FF0A3F09000C28E
:10093000F09000C9F0A3F0A3F09000B9F09000CDC2
:10094000F09000B7F09000CCF09000B4F09000EF81
:10095000F074FF900112F0A3F0759101E4F592F5A7
:1009600095F596F5B175B2BC7590FF75A0FF75B0A1
:100970004BC2B4C2B5D2B290014EF0758E30900029
:10098000CE74B6F07F007E0C1219DE90016CEFF091
:10099000E490016EF090016EE0FFC3940640030204
:1009A0000A2DEF25E0246CF582E4341AF583E493F4
:1009B000FF74019390016FCFF0A3EFF090016EE010
:1009C00025E0246CF582E4341AF583E493FE740187
:1009D00093FF2408FBE43EFA90016FE0FCA3E0FDE6
:1009E000C39BEC9A503EC3ED9F90016DF0AF05AEF6
:1009F000041219DE90016DE0FEA3E075F008A42456
:100A000081F582E43400F583E5822EF582E43583B6
:100A1000F583EFF0900170E004F0700690016FE054
:100A200004F0809890016EE004F0020995E49001D2
:100A30006FF0A3F090016FE0FEA3E0FFC3943AEEE5
:100A40009400502AE42FFFEE3406FE1219DE9001C6
:100A50006FA3E02414F582E43401F583EFF09001F4
:0E0A600070E004F0700690016FE004F080C6B4
:010A6E002265
:1017B400E4FFD297D293D294D2952097057402FF76
:1017C4008004EF54FDFFEF2093054404FF8003548D
:1017D400FBFFEF2094054408FF800354F7FFEF203C
:0A17E40095054410FF800354EFFF49
:0117EE0022D8
:1018FC00E490016DF07F0AFE1218061217B49001E5
:10190C006DEFF07F0A7E001218061217B490016D6D
:0A191C00E0FD6F60037F0022AF05BD
:01192600229E
:1010D200E490016CF0121A5190016CE0C394084044
:1010E200030211781218FC75E13DEF24FE603F24E3
:1010F200FE602A24FC601524F8705590016CE024EF
:10110200BAF582E43400F5837402803190016CE018
:1011120024BAF582E43400F5837403802090016CD4
:10112200E024BAF582E43400F5837404800F900160
:101132006CE024BAF582E43400F5837405F07D9600
:101142007C007F0112177490016CE004F0121A51B6
:101152009000B9E0C3940A50030210DA121ABA12CC
:1011620000087D967C007F02121774120026C201CD
:08117200120CDA0210DA7F0111
:01117A002252
:10186300E490016CF0121AB77DC87C007F01121757
:1018730074121A84120026121A51E490016CF07F3C
:10188300797E0212180675E13D90016CE004F0E0E8
:08189300C3940640EA121A8F0B
:01189B00222A
:0F1A4200C28CC28D758CDC758A31D28CD2A922F0
:1019FE0053877F759850538EBF538EFE7589217510
:0C1A0E008BFA758DFAC2ABD28ED2AC22DE
:10002E00E490016BF0900168F0A3F0A3F090015101
:10003E00F0900155F0A3F0A3F0900159F0A3F090C9
:10004E00015C1208EF000000009001601208EF0042
:10005E00000000E4900164F0A3F0A3F0A3F01209F5
:10006E002075E13DD2B37D967C007F01121774128C
:10007E001A421219FE12189CE49000B4F012195292
:10008E00121A51121AB743C50812147F4003020503
:10009E0062121A5130B30302017230B30302016DC2
:1000AE007F0A7E001218069000B9E0C3940A40EA57
:1000BE007F007E0812199DE4900156F0900156E0E3
:1000CE00FFC394064003020162EF25E0246CF58223
:1000DE00E4341AF583E493FF740193900164CFF036
:1000EE00A3EFF0900156E025E0246CF582E4341A7B
:1000FE00F583E493FE740193FF2408FBE43EFA902B
:10010E000164E0FCA3E0FDC39BEC9A503EC3ED9F5F
:10011E00900155F0AF05AE041219DE900155E0FEC8
:10012E00A3E075F008A42481F582E43400F583E59C
:10013E00822EF582E43583F583EFF0900165E004BD
:10014E00F070A0900164E004F08098900156E004F5
:10015E00F00200CA120DE0C201120CDA0200A8C2AF
:10016E0001120CDAE49000B2F0A3F0900080F0904F
:10017E000080E0701675E13D1218FC900151EFF011
:10018E0060ED7D967C007F01121774900151E02482
:10019E00FE602424FE601824FC600C24F87020906D
:1001AE0001587401F0801D9001587402F080159072
:1001BE0001587403F0800D9001587404F08005E42A
:1001CE00900158F0121ABA75E13D900158E024FEE4
:1001DE006023146033147003020277240360030259
:1001EE0003F2121AB7120BB39000B7E0B401031268
:1001FE001A8F02048A121AB71213209000B7E0B4B5
:10020E000103121A8F02048A121AB71210D2EF606B
:10021E00B6E4900151F0900151E0FFC39406503ABC
:10022E00EF75F008A42481F9740035F0FA7B01C053
:10023E000390016FEBF0A37400F0A374BAF0A374F3
:10024E0008F0D0031214E5EF6008121863C2011211
:10025E000CDA900151E004F080BC121ABA120008B8
:10026E007D967C007F02020549121AB7121A5112AE
:10027E000EAB900151EFF07D967C007F011216E4DB
:10028E00121AB71210D2E4900151F0900151E0FF12
:10029E00C3940640030203CFEF75F008A42481F542
:1002AE0082E43400F583E0FF6008C3940650030235
:1002BE0003C6E4900155F0900155E0FF24BAF58293
:1002CE00E43400F583E0FE900151E075F008A424BB
:1002DE0081F582E43400F583E5822FF582E43583DF
:1002EE00F583EEF0900155E004F0E0B408C97F000C
:1002FE007E0812199DE4900156F0900156E0FFC35E
:10030E00940640030203AFEF25E0246CF582E4343B
:10031E001AF583E493FF740193900164CFF0A3EF79
:10032E00F0900156E0F925E0246CF582E4341AF5DC
:10033E00837401932408FDE4933400FC900164E07F
:10034E00FAA3E0FBC39DEA9C504EE925E0246CF530
:10035E0082E4341AF583740193FEC3EB9E9001552B
:10036E00F0E0FFE975F008A42481F582E43400F58D
:10037E0083E5822FF582E43583F583E0FD900164F9
:10038E00E0FEA3E0FF121829900165E004F07091E1
:10039E00900164E004F08089900156E004F00203BD
:1003AE0008120026121AB77DE87C037F011217741B
:1003BE00121ABAC201120CDA900151E004F00202D4
:1003CE0099121ABA1200087D967C007F03121774D8
:1003DE00120026C201120CDA7DE87C037F0112178F
:1003EE007402055A75E13D900168E07044121A5F7F
:1003FE009000B1EFF09001687401F0900152740317
:10040E00F0E4A3F0A37439F0E490014EF07B017A8E
:10041E000179521217309001837401F0A37401F028
:10042E00A3745BF07B017A01794E7DF47C0112138B
:10043E009E9000B1E024FE604604600302055190D8
:10044E0000B7E07012121A849000B77401F0E490B5
:10045E0000CBF09000B9F09000B9E0C394055003C2
:10046E000201D51200087D967C007F0212177412CD
:10047E0000269000B7E0B40103121A8F02055A123B
:10048E001979900151EFF0BFAA0612186302055AAE
:10049E00900151E06455706590016BE004F012001C
:1004AE00087D967C007F0312177412002690016B54
:1004BE00E0C394034005C201120CDAE49000CBF0C5
:1004CE009000B9F09001527403F0E4A3F0A37439D4
:1004DE00F0E490014EF07B017A01795212173090C0
:1004EE0001837401F0A37401F0A3745BF07B017AB5
:1004FE0001794E7DF47C0112139E0201D5900151BB
:10050E00E0702F9000B9E0C39408401E1200087DE1
:10051E00967C007F031217741200269000B7E0B489
:10052E000103121A8FC201120CDA7F03121A1A0279
:10053E0001D51200087D967C007F031217741200FD
:10054E002680097DC87C007F031215F8C201120CAB
:09055E00DA0201D5C201020CDA37
:03000B00020F667B
:100F6600C0E0C083C082C0D075D000C007758CDCDD
:100F7600758A319000CBE004F09000C2E004F09056
:100F860000CAE004F070069000C9E004F09000B3D7
:100F9600E004F070069000B2E004F0C39000B3E005
:100FA60094C89000B2E09400400CE4F0A374C9F039
:100FB6009000807401F09000CBE0B4C819E4F09082
:100FC60000B9E004F0E0C3943C400B9000CDE0048F
:100FD600F09000B9E4F0900187E004F0700690010B
:100FE60086E004F0900110E0C3940540187405F003
:100FF600900111E0600A90014FF090014E7401F0EB
:10100600900111E4F0900110E004F0D007D0D0D0A8
:0610160082D083D0E0321D
:030023000218CFF1
:0B18CF00C0E0C083C082C0D075D0080C
:1018DA00309816C298AF99900111E0FE04F0742175
:0918EA002EF8A60F900110E4F0A5
:0918F300D0D0D082D083D0E032C5
:03002B0002164A70
:0D164A00C0E0C083C082C0D075D000C007D2
:1016570053C5EF900150E5C6F09000EFE024CFF5B9
:1016670082E43400F583E5C6F09000EFE004F0E093
:10167700FFC3942040069000B47401F0EF541F900C
:0616870000EFF043C5086E
:0B168D00D007D0D0D082D083D0E03254
:0B14E50090016CEBF0A3EAF0A3E9F02B
:1014F0009001737401F0E4FFFE900172E0FDC3EF10
:101500009D7480F86E98503C90016CE0FBA3E0FA6B
:10151000A3E0F98F828E8312075F900174F090012F
:101520006FE0FBA3E0FAA3E0F98F828E8312075FDE
:10153000FD900174E06D6005E4900173F00FBF0051
:09154000010E80B5900173E0FF7B
:01154900227F
:101A1A00E49000C2F09000C2E0C39F500875E13D17
:061A2A0000000080F02224
:1019BE00EF24FE600C14600E2402700FC2B4D2B578
:1019CE0022D2B4C2B522D2B4D2B522C2B4C2B5228A
:100CDA00300103D2B222E4900173F0900173E0FF75
:100CEA0024CFF582E43400F583E0FE74F02FF58218
:100CFA00E43400F583EEF0900173E004F0E0B420F0
:100D0A00DA7B017A0079F07D20120A6F90016F1266
:100D1A0008EF000000009001737408F090016FE082
:100D2A00F8A3E0F9A3E0FAA3E0FBA3E024F0F5823C
:100D3A00E43400F583E0FFE4FCFDFEEB2FFFEE3A1E
:100D4A00FEED39FDEC38FC90016F1208E390017357
:100D5A00E004F0E0B418C590016FE0FCA3E0FDA345
:100D6A00E0FEA3E0FFE47B10FAF9F81208519001C3
:100D7A006F1208E390016FA3A3A3E0FF9000CEE0F7
:100D8A00FEEFC39E503D121ABA120008E490017396
:100D9A00F07D507C007F031217747F797E0212184F
:100DAA000675E13D900173E004F0E0C3940A40E166
:100DBA007D507C007F07121774120026121ABAC2DD
:100DCA00B280FE120026121ABA7DE87C037F011255
:060DDA001774C2B280FE96
:10000E00300003D2B222121A51120026121ABAC2AC
:03001E00B280FEAF
:03000800C2912280
:03002600D2912252
:031AB700C29222B6
:031ABA00D29222A3
:1017EF001219BE7FC87E00121806121806121806AC
:0717FF00E4FF1219BE7F0A8E
:10180600E4FDFCC3ED9FEC9E5018E4FBFA75E13D48
:101816000BBB00010ABA03F5BBE8F20DBD00010CD3
:0218260080E15F
:01182800229D
:0A15A200900172ECF0A3EDF0A90730
:1015AC00E4A3F0A3F0E9FFC3900175E09F7480F809
:1015BC00900174E06480985032120008900172E03F
:1015CC00FEA3E0FF12180675E13D12002690017291
:1015DC00E0FEA3E0FF12180675E13D900175E004F2
:0B15EC00F070C2900174E004F080BABF
:0115F70022D1
:0A154A0090017AECF0A3EDF0A90780
:10155400E4A3F0A3F0E9FFC390017DE09F7480F859
:1015640090017CE06480985032120008121ABA90FC
:10157400017AE0FEA3E0FF121806120026121AB741
:1015840090017AE0FEA3E0FF12180690017DE004CA
:0E159400F070C290017CE004F080BA021ABA36
:031ABD00D2B7227B
:031AC000C2B72288
:0819270090017AE0FEA3E0FF4D
:10192F00E4FDFCC3ED9FEC9E5018E4FBFA75E13D1E
:10193F000BBB00010ABA05F5BBDCF20DBD00010CB3
:02194F0080E135
:011951002273
:0A17740090017AECF0A3EDF0A90754
:10177E00E4A3F0A3F0E9FFC390017DE09F7480F82D
:10178E0090017CE0648098501C121ABD1219271229
:10179E001AC012192790017DE004F070D890017CD8
:0517AE00E004F080D012
:0117B3002213
:0A16980090017AECF0A3EDF0A90731
:1016A200E4A3F0A3F0E9FFC390017DE09F7480F80A
:1016B20090017CE06480985028121ABD12000890B4
:1016C200017A12192A121AC012002690017A1219EE
:1016D2002A90017DE004F070CC90017CE004F0805F
:0116E200C443
:0116E30022E4
:0A16E40090017AECF0A3EDF0A907E5
:1016EE00E4A3F0A3F0E9FFC390017DE09F7480F8BE
:1016FE0090017CE06480985028121ABD121AB7909F
:10170E00017A12192A121AC0121ABA90017A1219F3
:10171E002A90017DE004F070CC90017CE004F08012
:01172E00C4F6
:01172F002297
:0A15F800900171ECF0A3EDF0A907DB
:10160200E4A3F0A3F0E9FFC3900174E09F7480F8B3
:10161200900173E0648098502E121ABD12000812D5
:101622001AB790017112192A121AC0120026121A40
:10163200BA90017112192A900174E004F070C690F8
:071642000173E004F080BE1B
:01164900227E
:10195200E4FF1219BED201120CDAE49000C2F012B6
:101962000026121AB79000C2E0C3940A5003008006
:07197200F4121ABA021AC0B8
:0B1A8400121AB77F011217EF021ABA06
:0B1A8F00121AB77F021217EF021ABAFA
:0E1A5100E49000CBF09000B9F09000CDF022B0
:100EAB00E490016DF0A3F075E13D90016DE0700CE5
:100EBB00121A5F90016CEFF0A37401F090016CE0DB
:100ECB0024FE601D046003020F551200087D967C02
:100EDB00007F02121774120026C201120CDA7F0077
:100EEB002212117BEF64017032900112E07002A3A9
:100EFB00E070037F012290016EE004F01200087D88
:100F0B00967C007F0312177412002690016EE0C3CB
:100F1B009403402AC201120CDA802390016EE00484
:100F2B00F01200087D967C007F03121774120026C6
:100F3B0090016EE0C394034005C201120CDAE490F9
:100F4B0000CBF09000B9F0020EB27DC87C007F039D
:0B0F5B001215F8C201120CDA020EB2EF
:100DE000E490016CF01200087D647C007F01121712
:100DF0007490016D7404F0E4A3F0A37439F07B01E6
:100E00007A01796D121730E490016CF090016CE07A
:100E1000FFC3943A501574142FF582E43401F5831E
:100E20007430F090016CE004F080E17F007E0612E7
:100E3000199DE4900170F0A3F0900170E0FCA3E034
:100E4000FD2400FFEC3406FE74142DF582E4340119
:100E5000F583E0FD121829900171E004F07006900E
:100E60000170E004F0C3900171E0943A900170E0E9
:100E7000940040C5E490016CF075E13D7F797E02FD
:100E800012180690016CE004F0E0C3940640EA7D7D
:100E9000F47C017F011217741200267F907E0112EC
:0B0EA00018067D907C017F030215A264
:0D1A5F00900114E0B430037F01227F0222C9
:101A300074142FF582E43401F583E0B43102D3222B
:021A4000C322BF
:10117B009001727403F0E4A3F0A37439F0E49001CE
:10118B004EF07B017A017972121730900183740152
:10119B00F0A37401F0A37475F07B017A01794E7D95
:1011AB00F47C0112139E900175E06402705490015F
:1011BB004EF07B0190018304F0A37401F0A37475CE
:1011CB00F07A01794E7D407C1F12139E900175E0E1
:1011DB006402702B90014EF07821E6643A701D0882
:1011EB00E6B4031808E6B4AA1308E6B4010E08E641
:1011FB00FF900112E4F0A3EFF07F01227F00227F2A
:04120B0000227F003E
:01120F0022BC
:1019790090014EE064017019F07821E6B43A0F083D
:10198900E6B4030A7824E6B4010418E6FF227F00CE
:04199900227F002287
:10129C0090017A7402F0A3EDF0A3EFF0E490014E0C
:1012AC00F07B017A01797A1217309001837401F086
:1012BC00A37401F0A3747DF07B017A01794E7DF467
:1012CC007C0112139E90017DE0640270447B0190BE
:1012DC00018304F0A37401F0A3747DF07A01794EBC
:1012EC007D407C1F12139E90017DE06402701F9064
:1012FC00014EF07821E6B43A1208E6B4020D08E685
:10130C00B4AA0808E6B401037F01227F00227F0003
:03131C00227F002D
:01131F0022AB
:08101C00900171EFF0A3EDF06B
:10102400A37404F0A3EFF0A3EDF0E490014EF07B81
:10103400017A0179731217309001837401F0A3745B
:1010440001F0A37478F07B017A01794E7DF47C0180
:1010540012139E900178E064027070900171E0FFB9
:10106400900172E0FEEFD39E501074142FF582E4C9
:101074003401F5837430F00F80E67F007E06121988
:101084009DE4900176F0A3F0900176E0FCA3E0FDEE
:101094002400FFEC3406FE74142DF582E43401F5CB
:1010A40083E0FD121829900177E004F070069001A6
:1010B40076E004F0C3900177E0943A900176E094EE
:0D10C4000040C5E490014EF07F01227F0046
:0110D10022FC
:05056700900172EFF0AD
:10056C00E4FE900175F0A3F0A3F0C20175E13DEF3C
:10057C0070629001737403F0900173E0FFD39414D4
:10058C00501B7E00121A305014900173E0B4140505
:10059C0074FFF08008900173E004F080DB7F017E33
:1005AC0000121A3040089001777401F080197F0214
:1005BC007E00121A3040089001777402F080089087
:1005CC000173E0900177F0900177E0F4600302068C
:1005DC0079020665900172E06401704BA37415F00A
:1005EC00900173E0FFD39426501B7E00121A3050FA
:1005FC0014900173E0B4260574FFF0800890017329
:10060C00E004F080DB7F027E00121A30400890017B
:10061C00777402F08008900173E0900177F09001FC
:10062C0073E0F4704880329001737427F09001737A
:10063C00E0FFD39439501B7E00121A3050149001F5
:10064C0073E0B4390574FFF08008900173E004F096
:10065C0080DB900173E0B4FF0C7DE87C037F031218
:10066C0016987F0022900173E0900177F09001754D
:10067C00E004F07D967C007F011216E4E490017397
:10068C00F07B0190018304F0A37401F0A37474F067
:10069C007A0179737DE87C0312139E7D967C007F32
:1006AC00011216E4900177E0FF7D0112129C90017B
:1006BC0073EFF0E07002FF22900177E0FF7D0212F1
:1006CC00129C900173EFF0E07002FF22900177E032
:1006DC002414F582E43401F5837431F07F007E0636
:1006EC0012199DE4900178F0A3F0900178E0FCA33E
:1006FC00E0FD2400FFEC3406FE74142DF582E43486
:10070C0001F583E0FD121829900179E004F07006E0
:10071C00900178E004F0C3900179E0943A9001786C
:10072C00E0940040C57DE87C037F011217747DC8FE
:09073C007C007F0312154A7F01C5
:010745002291
:0814140090016EEEF0A3EFF071
:10141C00121AB775E13D90016EE07002A3E07010F6
:10142C007D397F0112101C900170EFF07039802C07
:10143C0090016EE07004A3E0640170127D267F15AC
:10144C0012101C900170EFF07002801080197D3921
:10145C007F2712101C900170EFF0700B7D96FC7FB3
:10146C00031216987F00227DE87C037F011216E49C
:02147C007F01EE
:01147E00224B
:100BB300E490016FF0121A5F90016EEFF064016030
:100BC30003020C4F7D01FF12129C90016CEFF0E0C9
:100BD3007002800F7D02E4FF12129C90016CEFF013
:100BE300E070087D96FC7F0302169890011474311F
:100BF300F07F007E0612199DE4900170F0A3F0903F
:100C03000170E0FCA3E0FD2400FFEC3406FE741445
:100C13002DF582E43401F583E0FD1218299001716A
:100C2300E004F07006900170E004F0C3900171E0FD
:100C3300943A900170E0940040C57DE87C037F0105
:100C43001216E47DC87C007F0302154A90016EE012
:100C530064026003020CD975E13D12117B7E00EF43
:100C630070167D96FC7F0312169890016FE004F0D6
:100C7300E0D39402506080DFC3900113E0940390AB
:100C83000112E09400503A7DF47C017F011216E4D6
:100C9300E490016CF07B0190018304F0A37401F0F4
:100CA300A3746DF07A01796C7DD07C0712139E7D5D
:100CB300967C007F011216E4900112A3E0FF020567
:100CC300677D967C007F0312169890016FE004F015
:060CD300E0D39402408111
:010CD90022F8
:10132000E490016DF0121A5F90016CEFF0BF0109BB
:101330007D967C007F0302169890016CE064027039
:101340005C75E13D12117B7E00EF70167D96FC7F8F
:101350000312169890016DE004F0E0D39402503D22
:1013600080DFC3900113E09403900112E0940050D9
:10137000171200267DF47C017F011216E490011201
:10138000E0FEA3E0FF0214147D967C007F0312169A
:0D1390009890016DE004F0E0D3940240A4B9
:01139D00222D
:10147F00E490016CF0A3F0A3F0A3F075E13DE490CC
:10148F00014EF07B017A01796D1217309001837450
:10149F0001F0A37401F0A37470F07B017A01794E0F
:1014AF007DF47C0112139E900170E0B40207E4906A
:1014BF00014EF0D32290016CE004F0E0C39402409F
:1014CF000E1200087D967C007F021215F8C3227F52
:0614DF000A121A1A80A592
:0A1AA400C2998F993099FDC2992272
:101730007F3A121AA47FFF121AA4121AA4121AA432
:10174000120746FF121AA490000112075FFF121A37
:10175000A490000212075FFF121AA4900001120762
:101760005FFF12074624372FFF90000212075F2FFA
:04177000FF021AA4B6
:0C1A7800C2AF53E71843E70343E78022A6
:091AAE0053E77FE4F5E6D2AF2214
:1019DE00AD07AC06ECF5E3EDF5E453E5F843E501B0
:1019EE00121A7875E64675E6B900121AAEAFE22203
:10199D00E4FDEE54FEFCF5E3E4F5E453E5F843E530
:1019AD0003121A7875E64675E6B900121AAE7F0174
:0119BD002207
:10182900AB07AA06EAF5E3EBF5E453E5F843E5026D
:101839008DE2121A7875E64675E6B900E4F5E253C9
:10184900E5F843E50175E64675E6B900121AAEE515
:0A185900E2B505037F01227F0022A3
:10189C0075910175920175C5807F057E0012180641
:1018AC00758E30D2ADE4F5C67F209000CF74FFF07A
:1018BC00A3DFFCE49000EFF07B017A0079CF7D2070
:0318CC00020A6F9E
:0B0A6F00900174EBF0A3EAF0A3E9F0A3
:100A7A00E4900178F0ED14900177F0900177E0FFAF
:100A8A00A3E0FEC39F4003020BB2EF14A3F0E4906D
:100A9A000177F090017AEEF0900179E0FFA3E0D3BC
:100AAA009F5069E0FF2401FDE433FC900174E0FBF0
:100ABA00A3E0FAA3E0F98D828C8312075FFE8F828E
:100ACA0075830012075FD39E403A90017AE0F5825F
:100ADA0075830012075F90017BF07E008F828E8300
:100AEA00A312075FFD90017AE0FCF582758300EDA1
:100AFA0012079E90017BE08F828E83A312079E903D
:100B0A000177ECF090017AE004F0808C900178E0B3
:100B1A0004A3F0E4900178F0900177E090017AF074
:100B2A00900179E0FFA3E0C39F5003020A85E0FF2A
:100B3A0024FFFDE434FFFC900174E0FBA3E0FAA378
:100B4A00E0F98D828C8312075FFE8F827583001213
:100B5A00075FFFEED39F404790017AE0FFF5827569
:100B6A00830012075F90017BF07E0074FF2FF582ED
:100B7A00EE34FFF58312075FFD90017AE0FCF582FF
:100B8A00758300ED12079E90017BE0FD74FF2FF53F
:100B9A0082EE34FFF583ED12079E900178ECF09017
:080BAA00017AE014F0020B2AAD
:010BB2002220
:10139E0090017EEBF0A3EAF0A3E9F0A3ECF0A3ED4D
:1013AE00F0E4900186F0A3F090017EE0FBA3E0FA5A
:1013BE00A3E0F9120746702E75E13D900181E0FE23
:1013CE00A3E0FF7C007D051207C0C3900187E09F5C
:1013DE00900186E09E40D1900183E0FBA3E0FAA34A
:1013EE00E0F97401801C90017EE0FBA3E0FAA3E01B
:1013FE00F9E412078C900183E0FBA3E0FAA3E0F975
:06140E00740212078C229B
:03000000021210D9
:0C121000787FE4F6D8FD75813402125797
:10074600BB010689828A83E0225002E722BBFE02B1
:09075600E32289828A83E49322E4
:10075F00BB010CE58229F582E5833AF583E022504F
:10076F0006E92582F8E622BBFE06E92582F8E22299
:0D077F00E58229F582E5833AF583E49322B3
:10078C00BB010689828A83F0225002F722BBFE014C
:02079C00F32246
:10079E00F8BB010DE58229F582E5833AF583E8F091
:1007AE00225006E92582C8F622BBFE05E92582C83D
:0207BE00F22225
:1007C000BC000BBE0029EF8DF084FFADF022E4CC1D
:1007D000F875F008EF2FFFEE33FEEC33FCEE9DECE6
:1007E000984005FCEE9DFE0FD5F0E9E4CEFD22ED2C
:1007F000F8F5F0EE8420D21CFEADF075F008EF2F76
:10080000FFED33FD4007985006D5F0F222C398FD66
:050810000FD5F0EA2203
:1008150075F008758200EF2FFFEE33FECD33CDCC9A
:1008250033CCC58233C5829BED9AEC99E58298401D
:100835000CF582EE9BFEED9AFDEC99FC0FD5F0D6FA
:10084500E4CEFBE4CDFAE4CCF9A88222B800C1B924
:100855000059BA002DEC8BF084CFCECDFCE5F0CB62
:10086500F97818EF2FFFEE33FEED33FDEC33FCEB9B
:1008750033FB10D703994004EB99FB0FD8E5E4F956
:10088500FA227818EF2FFFEE33FEED33FDEC33FC43
:10089500C933C910D7059BE99A4007EC9BFCE99A37
:1008A500F90FD8E0E4C9FAE4CCFB2275F010EF2F7C
:1008B500FFEE33FEED33FDCC33CCC833C810D7077C
:1008C5009BEC9AE899400AED9BFDEC9AFCE899F8B7
:0E08D5000FD5F0DAE4CDFBE4CCFAE4C8F9224A
:0C08E300ECF0A3EDF0A3EEF0A3EFF02288
:1008EF00A8828583F0D083D08212090612090612DE
:1008FF000906120906E473E493A3C583C5F0C58303
:10090F00C8C582C8F0A3C583C5F0C583C8C582C852
:01091F0022B5
:10121C0002002EE493A3F8E493A34003F68001F2BA
:10122C0008DFF48029E493A3F85407240CC8C333D3
:10123C00C4540F4420C8834004F456800146F6DFA2
:10124C00E4800B0102040810204080900003E47E2F
:10125C00019360BCA3FF543F30E509541FFEE49397
:10126C00A360010ECF54C025E060A840B8E493A35E
:10127C00FAE493A3F8E493A3C8C582C8CAC583CA89
:10128C00F0A3C8C582C8CAC583CADFE9DEE780BE41
:0100070000F8
:00000001FF
